:100000000C9489000C94BA000C94BA000C94BA00B9
:100010000C94BA000C94BA000C94BA000C94BA0078
:100020000C94BA000C94BA000C94BA000C94BA0068
:100030000C94BA000C94BA000C94BA000C94BA0058
:100040000C94BA000C94BA000C94BA000C94BA0048
:100050000C94BA000C94BA000C94BA000C94BE052F
:100060000C94BA000C9432060C9408060C94BA0056
:100070000C94BA000C94BA000C94BA000C94BA0018
:100080000C94BA000C94BA000C94BA000C94BA0008
:100090000C94BA000C94BA000C94BA000C94BA00F8
:1000A0000C94BA000C94BA000C94BA000C94BA00E8
:1000B0000C94BA000C94BA000C94BA000C94BA00D8
:1000C0000C94BA000C94BA000C94BA000C94BA00C8
:1000D0000C94BA000C94BA000C94BA000C94BA00B8
:1000E0000C94BA000C94EA000C941B010C9453017C
:1000F0000C9468060C94F9000C940D010C94BC004F
:100100000C94A0016364696E6F70737578585B001E
:10011000680611241FBECFEFD1E2DEBFCDBF00E0E5
:100120000CBF24E0A6ECB3E001C01D92A73CB207CF
:10013000E1F713E0A0E0B2E0EEE2FBE100E00BBF8C
:1001400002C007900D92A63CB107D9F710E0C9E8AC
:10015000D0E000E006C021970109802FFE010E9437
:100160000108C838D10780E00807A9F70E94CB062C
:100170000C94950D0C940000CF92DF92EF92FF92B9
:100180000F931F93CF93DF936C017A018B01C0E033
:10019000D0E0CE15DF0581F0D8016D918D01D6013B
:1001A000ED91FC910190F081E02DC6011995892B0C
:1001B00011F02196EECF7E01C701DF91CF911F9103
:1001C0000F91FF90EF90DF90CF900895089580E019
:1001D00090E00895FC01538D448D252F30E0842F4D
:1001E00090E0821B930B541710F0CF96089501975F
:1001F0000895FC01918D828D981761F0828DDF0149
:10020000A80FB11D5D968C91928D9F5F9F73928F09
:1002100090E008958FEF9FEF0895FC01918D828DFE
:10022000981731F0828DE80FF11D858D90E00895CB
:100230008FEF9FEF0895FC01918D228D892F90E023
:10024000805C9F4F821B91098F739927089580E1ED
:1002500094E00E941B0121E0892B09F420E0822F09
:100260000895FC01848DDF01A80FB11DA35ABF4F73
:100270002C91848D90E001968F739927848FA689A5
:10028000B7892C93A089B1898C91837080648C93F9
:10029000938D848D981306C00288F389E02D8081A8
:1002A0008F7D80830895EF92FF920F931F93CF93DA
:1002B000DF93EC0181E0888F9B8D8C8D981305C0B6
:1002C000E889F989808185FD26C0F62E0B8D10E026
:1002D0000F5F1F4F0F731127E02E8C8DE8120CC09B
:1002E0000FB607FCFACFE889F989808185FFF5CF41
:1002F000CE010E943101F1CF8B8DFE01E80FF11D7F
:10030000E35AFF4FF0829FB7F8940B8FEA89FB897D
:10031000808180620AC09FB7F894EE89FF8960836C
:10032000E889F98980818370806480839FBF81E040
:1003300090E0DF91CF911F910F91FF90EF90089582
:10034000CF93DF93EC01888D8823C9F0EA89FB897C
:10035000808185FD05C0A889B9898C9186FD0FC073
:100360000FB607FCF5CF808185FFF2CFA889B98948
:100370008C9185FFEDCFCE010E943101E7CFDF9157
:10038000CF910895009769F0FC0101900020E9F7F2
:100390003197AF01481B590BBC0180E194E00C94EC
:1003A000BC0080E090E00895CF93DF930E94C201EB
:1003B000EC0188E192E00E94C2018C0F9D1FDF9149
:1003C000CF910895CF93DF93FC01448155816081E3
:1003D000718180E194E00E94BC00EC0188E192E030
:1003E0000E94C2018C0F9D1FDF91CF910895CF9283
:1003F000DF92EF92FF920F931F93CF93DF93CDB7CE
:10040000DEB7A1970FB6F894DEBF0FBECDBF9C013B
:1004100040E050E019A28E010F5D1F4F8AE0C82E08
:10042000D12CE12CF12CCA01B901A70196010E943F
:10043000DF07605DF80162938F01211531054105E9
:10044000510589F7CF010E94C2018C0188E192E039
:100450000E94C201800F911FA1960FB6F894DEBFD3
:100460000FBECDBFDF91CF911F910F91FF90EF9005
:10047000DF90CF9008950E940F0A0F931F93CF93A0
:10048000DF93EC0188819981009729F02A813B81D3
:100490002617370788F48B016F5F7F4F0E942A0968
:1004A000009761F0998388831B830A832C813D81A7
:1004B000232B11F4FC01108281E001C080E0DF9168
:1004C000CF911F910F910895EF92FF920F931F9379
:1004D000CF93DF936115710511F480E01FC0FB011C
:1004E00001900020E9F73197E61BF70BB1F07B0193
:1004F000EC010C811D810E0F1F1FB8010E943D02EF
:10050000882359F3288139818C819D81B701820F1D
:10051000931F0E94260A1D830C8381E0DF91CF91F7
:100520001F910F91FF90EF900895CF92DF92EF927D
:10053000FF920F931F93CF93DF9300D01F92CDB7FD
:10054000DEB78C01862F4AE09E012F5F3F4F790175
:10055000B90190E00E948807F70101900020E9F7B7
:100560003197EE19FF09E1F0D8011496CD90DC9097
:100570001597CE0EDF1EB601C8010E943D028823EA
:1005800081F0F8012081318184819581B701820F4A
:10059000931F0E94260AD8011596DC92CE921497DA
:1005A00081E00F900F900F900F90DF91CF911F91EE
:1005B0000F91FF90EF90DF90CF900895EF92FF9210
:1005C0000F931F93CF93DF93EC017B018A01BA0154
:1005D0000E943D022881398181110DC0211531050C
:1005E00019F0C9010E94A108198218821D821C827B
:1005F0001B821A8206C01D830C83B701C9010E94A9
:10060000260ACE01DF91CF911F910F91FF90EF90BD
:100610000895CF93DF93EB01FC01828193810E94C7
:10062000C9078883DF91CF9108950F931F93CF93CC
:10063000DF938C01EB010E94C9078883C8010196F2
:100640000E94C9078983CE01DF91CF911F910F913D
:100650000895CF93DF931F921F92CDB7DEB7BE01EF
:100660006F5F7F4FFC01828193810E941503898116
:100670009A810F900F90DF91CF9108950F931F9360
:10068000CF93FC0120813181232B71F0C62F028191
:100690001381C8010E94C907C81721F06C2FC80137
:1006A0000E94D10781E001C080E0CF911F910F919E
:1006B0000895AF92BF92DF92EF92FF920F931F9334
:1006C000CF93DF93EC017B018B015C0182E0A80EEC
:1006D000B11CF801D1908F01CE010E94C907D81634
:1006E00021F06D2DCE010E94D1072196CA15DB05A0
:1006F00081F7C701DF91CF911F910F91FF90EF908C
:10070000DF90BF90AF9008951F93CF93DF931F9218
:100710001F92CDB7DEB77A836983DC01ED91FC913E
:100720003197E60FF71F2081222319F0108210E085
:1007300001C011E0BE016F5F7F4FFC018281938198
:100740000E945903812F0F900F90DF91CF911F913D
:100750000895EF92FF920F931F93CF93DF93CDB73E
:10076000DEB7A5970FB6F894DEBF0FBECDBF80E110
:1007700094E00E941B01892B81F080E194E00E94AB
:10078000F900F82EE091060481E08E0F80930604B4
:10079000F0E0EA53FC4FF082EACF2AE0F212ACC15B
:1007A0008E010B5E1F4FD801EF2D1D92EA95E9F7E0
:1007B0009E012F5F3F4F790184E1D9011D928A95F7
:1007C000E9F780E0E82FF0E026EC33E0EA53FC4F55
:1007D00090819C3211F08F5FF5CF80E28083FF9291
:1007E000EF921F930F938BE192E09F938F933F9330
:1007F0002F930E942D0A84E292E00E94C201C80158
:100800000E94D40189E292E00E94C201C7010E94C5
:10081000D40161E372E0C8010E941D0A0FB6F8948A
:10082000DEBF0FBECDBF892B09F456C168E372E06D
:10083000C8010E941D0A892BF1F481E492E00E9414
:10084000C201C7010E94D4018981082E000C990BB6
:1008500098A38F8F8091BB049091BC04029708F4F9
:100860003EC1BE01615E7F4F8091BD049091BE0488
:100870000E94590331C161E572E0C8010E941D0A5E
:10088000892B49F4B7018FEB94E00E9484038823FD
:1008900009F425C121C16DE572E0C8010E941D0A5D
:1008A000892B99F486E692E00E94D40100E010E0E2
:1008B00060E0C8010E94D1070F5F1F4F0115F0E1F2
:1008C0001F07B1F781E892E054C065E972E0C80102
:1008D0000E941D0A892B09F04FC08BEB94E00E9407
:1008E0002903892B51F462EA72E08BEB94E00E94B9
:1008F000840384EB92E00E94D4018FEB94E00E9489
:100900002903892B51F463ED72E08FEB94E00E9490
:10091000840388EE92E00E94D40187EB94E00E9469
:100920002903892B49F460E087EB94E00E943E03A1
:100930008AE093E00E94D40183EB94E00E942903B3
:10094000892B49F460E083EB94E00E943E0383E24C
:1009500093E00E94D4018FEA94E00E942903892B3E
:1009600009F0BAC061E08FEA94E00E943E038BE395
:1009700093E00E94D401B0C060E573E0C8010E941A
:100980001D0A892B09F07DC018A21F8E1AA219A278
:100990001CA21BA24BE050E068E573E0CE014F962D
:1009A0000E94DE028BEB94E00E942903BC01CE0181
:1009B0004F960E946402CE014F960E94E2014EE0E3
:1009C00050E064E673E0CE014F960E94DE028FEBAA
:1009D00094E00E942903BC01CE014F960E9464025C
:1009E000CE014F960E94E2014CE050E063E773E0D5
:1009F000CE014F960E94DE02BE016B5D7F4F87EBFA
:100A000094E00E9409036DA1CE014F960E949502C9
:100A1000CE014F960E94E2014BE050E060E873E0A7
:100A2000CE014F960E94DE02BE016B5D7F4F83EBCD
:100A300094E00E9409036DA1CE014F960E94950299
:100A4000CE014F960E94E20149E050E06CE873E06D
:100A5000CE014F960E94DE02BE016B5D7F4F8FEA92
:100A600094E00E9409036DA1CE014F960E94950269
:100A7000CE014F960E94E2018F8D98A10E94A1089D
:100A80002BC066E973E0C8010E941D0A892BF9F4A6
:100A90008091BD049091BE040E94F7018091C10431
:100AA0009091C2040E94F7018091B5049091B60420
:100AB0000E94F7018091B9049091BA040E94F70155
:100AC0008091B1049091B2040E94F70105C08FE9B2
:100AD00093E00E94D40103C082EB93E002C08EEB4E
:100AE00093E00E94D4011092060480E4E6ECF3E067
:100AF000DF011D928A95E9F7A5960FB6F894DEBF3F
:100B00000FBECDBFDF91CF911F910F91FF90EF905E
:100B100008950E942701811125C080E090E0892B73
:100B200041F080E090E0892B21F00E9400008111CB
:100B30001CC080E090E0892B41F080E090E0892BA0
:100B400021F00E940000811113C080E090E0892B09
:100B5000A1F080E090E0892B81F00E9400008111DB
:100B60000AC008950E94A903D8CF0E940000E1CFD7
:100B70000E940000EACF0C94000008951F920F928B
:100B80000FB60F9211242F933F938F939F93AF93A0
:100B9000BF9380910C0490910D04A0910E04B0912C
:100BA0000F0430910B0423E0230F2D3720F401961E
:100BB000A11DB11D05C026E8230F0296A11DB11D80
:100BC00020930B0480930C0490930D04A0930E04C7
:100BD000B0930F048091070490910804A091090438
:100BE000B0910A040196A11DB11D80930704909352
:100BF0000804A0930904B0930A04BF91AF919F9198
:100C00008F913F912F910F900FBE0F901F901895CD
:100C10001F920F920FB60F9211240BB60F922F93C3
:100C20003F934F935F936F937F938F939F93AF9374
:100C3000BF93EF93FF9380E194E00E943101FF9115
:100C4000EF91BF91AF919F918F917F916F915F9144
:100C50004F913F912F910F900BBE0F900FBE0F90B1
:100C60001F9018951F920F920FB60F9211240BB67A
:100C70000F922F938F939F93EF93FF93E091200414
:100C8000F09121048081E0912604F091270482FDF7
:100C900012C09081809129048F5F8F7320912A0464
:100CA000821751F0E0912904F0E0E05FFB4F958F4F
:100CB0008093290401C08081FF91EF919F918F91D2
:100CC0002F910F900BBE0F900FBE0F901F90189595
:100CD000E0E1F4E01382128288EE93E0A0E0B0E05D
:100CE00084839583A683B7838AE092E0918380838F
:100CF00085EC90E09587848784EC90E097878687E1
:100D000080EC90E0918B808B81EC90E0938B828BD8
:100D100082EC90E0958B848B86EC90E0978B868BB1
:100D2000118E128E138E148EEFEBF4E025E130E07D
:100D3000318320838091AD049091AE0493838283AC
:100D4000EBEBF4E0318320839C012B5E3F4F338338
:100D50002283E7EBF4E021E030E031832083AC0133
:100D6000465D5F4F53834283E3EBF4E0318320839E
:100D70004F5F5F4F53834283EFEAF4E03183208378
:100D80009C01245D3F4F338322838D969093AE0464
:100D90008093AD040895CF93DF931F921F92CDB738
:100DA000DEB7789484B5826084BD84B5816084BDEB
:100DB00085B5826085BD85B5816085BD80916E00F9
:100DC000816080936E00109281008091810082602A
:100DD0008093810080918100816080938100809167
:100DE00080008160809380008091B1008460809356
:100DF000B1008091B00081608093B000809191003B
:100E00008260809391008091910081608093910035
:100E1000809190008160809390008091A100826019
:100E20008093A1008091A10081608093A1008091B6
:100E3000A00081608093A000809121018260809356
:100E40002101809121018160809321018091200105
:100E500081608093200180917A00846080937A0081
:100E600080917A00826080937A0080917A0081601C
:100E700080937A0080917A00806880937A00109243
:100E8000C100E0912004F091210482E08083E09190
:100E90001C04F0911D041082E0911E04F0911F04C7
:100EA00080E1808310922804E0912404F0912504CD
:100EB00086E08083E0912204F091230480818061A8
:100EC0008083E0912204F0912304808188608083F4
:100ED000E0912204F0912304808180688083E09176
:100EE0002204F091230480818F7D8083BE016F5F97
:100EF0007F4F85E190E00E94150388E593E00E9412
:100F0000C20189819A810E94D4010E948905FDCF86
:100F1000BB274A3031F4992322F4BDE290958195A4
:100F20009F4F0C949407BB27FB015527AA27880FD6
:100F3000991FAA1FA41710F0A41B83955051B9F74D
:100F4000A05DAA3308F0A95DA193009779F7B111CC
:100F5000B1931192CB010C94B60791110C94C60772
:100F6000803219F089508550C8F70895DC01FC01E2
:100F7000672F71917723E1F7329704C07C916D93CD
:100F800070836291AE17BF07C8F308959927882729
:100F90000895F999FECF92BD81BDF89A992780B541
:100FA0000895262FF999FECF1FBA92BD81BD20BDAD
:100FB0000FB6F894FA9AF99A0FBE01960895A1E235
:100FC0001A2EAA1BBB1BFD010DC0AA1FBB1FEE1FC3
:100FD000FF1FA217B307E407F50720F0A21BB30B0E
:100FE000E40BF50B661F771F881F991F1A9469F78A
:100FF00060957095809590959B01AC01BD01CF01E6
:101000000895EE0FFF1F881F8BBF0790F691E02D0C
:1010100019940F931F93CF93DF938230910510F4AF
:1010200082E090E0E091C504F091C60420E030E059
:10103000A0E0B0E0309719F1408151810281138125
:1010400048175907C8F08417950769F4109731F0CD
:1010500012960C93129713961C9327C00093C50405
:101060001093C60422C02115310519F04217530709
:1010700018F49A01BD01EF01DF01F801DBCF211562
:101080003105F9F0281B390B2430310580F48A81B1
:101090009B816115710521F0FB019383828304C05C
:1010A0009093C6048093C504FE01329644C0FE01AD
:1010B000E20FF31F819391932250310939832883E2
:1010C0003AC02091C3043091C404232B41F42091F1
:1010D0000202309103023093C4042093C304209190
:1010E0000002309101022115310541F42DB73EB7C0
:1010F0004091040250910502241B350BE091C3047A
:10110000F091C404E217F307A0F42E1B3F0B28173D
:10111000390778F0AC014E5F5F4F2417350748F070
:101120004E0F5F1F5093C4044093C3048193919367
:1011300002C0E0E0F0E0CF01DF91CF911F910F916D
:101140000895CF93DF93009709F481C0FC01329793
:1011500013821282A091C504B091C604109781F445
:1011600020813181820F931F2091C3043091C404E8
:101170002817390751F5F093C404E093C30467C0FE
:10118000ED0120E030E0CE17DF0740F44A815B81BB
:101190009E0141155105F1F0EA01F5CFD383C283D9
:1011A00040815181840F951FC817D90759F4888150
:1011B0009981840F951F0296918380838A819B81F8
:1011C000938382832115310529F4F093C604E093BB
:1011D000C5043DC0E901FB83EA8349915991C40FDD
:1011E000D51FEC17FD0761F480819181840F951F55
:1011F0000296E90199838883828193819B838A8304
:10120000E0E0F0E012968D919C911397009719F011
:10121000FD01DC01F7CF8D919C9111979D012E5F0F
:101220003F4F820F931F2091C3043091C4042817AD
:10123000390769F4309729F41092C6041092C50456
:1012400002C013821282B093C404A093C304DF913E
:10125000CF9108956F927F928F929F92AF92BF929B
:10126000CF92DF92EF92FF920F931F93CF93DF9372
:10127000009789F4CB01DF91CF911F910F91FF90DF
:10128000EF90DF90CF90BF90AF909F908F907F9026
:101290006F900C940908FC01E60FF71F9C01225087
:1012A0003109E217F30708F4A9C0EC01D9010D9147
:1012B0001C91119706171707B0F00530110508F4B7
:1012C0009BC0C80104978617970708F495C0025081
:1012D0001109061B170B019311936D937C93CF019A
:1012E0000E94A10889C05B01A01AB10A4C01800EBE
:1012F000911EA091C504B091C604612C712CE12C03
:10130000F12C109709F446C08D919C911197A81566
:10131000B905B1F56C0142E0C40ED11CCA14DB045E
:1013200078F14C018A189B08640142E0C40ED11C7C
:101330001296BC9012971396AC91B5E0CB16D104DF
:1013400040F0B282A38391828082D9016D937C9315
:1013500009C00E5F1F4F800F911FF9019183808399
:10136000EB2DFA2FE114F10431F0D7011396FC9321
:10137000EE93129741C0F093C604E093C5043CC0BD
:101380006816790608F43C017D0112960D90BC9117
:10139000A02DB7CF8091C3049091C40488169906FC
:1013A000E1F466167706C8F480910002909101027C
:1013B000009741F48DB79EB7409104025091050209
:1013C000841B950BE817F907C8F4F093C404E09365
:1013D000C304F901718360830FC0CB010E94090827
:1013E0007C01009759F0A801BE010E94140ACE01A9
:1013F0000E94A108C70104C0CE0102C080E090E0B5
:10140000DF91CF911F910F91FF90EF90DF90CF90E0
:10141000BF90AF909F908F907F906F90089581E0E4
:1014200090E0F8940C94950DFB01DC0102C0019052
:101430000D9241505040D8F70895FB01DC018D9189
:10144000019080190110D9F3990B0895FB01DC017B
:1014500001900D920020E1F70895CF93DF93CDB76F
:10146000DEB72E970FB6F894DEBF0FBECDBF85E076
:101470008C838C899D899A838983AE01485E5F4FF6
:101480006E897F89CE0101960E940E0C2E960FB6B2
:10149000F894DEBF0FBECDBFDF91CF91089520FD40
:1014A00009C0FC0123FD05C022FF02C073836283D3
:1014B00051834083089544FD17C046FD17C0AB011A
:1014C000BC01DA01FB01AA0FBB1FEE1FFF1F109426
:1014D000D1F74A0F5B1F6E1F7F1FCB01BA01660F4A
:1014E000771F881F991F09C033E001C034E0660FE1
:1014F000771F881F991F3150D1F7620F711D811D11
:10150000911D08950F931F93CF93DF938C01C80112
:101510000E943E0DEC0197FD08C00E94AD07892B8B
:10152000B1F7B801CE010E947C0DCE01DF91CF91C1
:101530001F910F9108958F929F92AF92BF92EF9259
:10154000FF920F931F93CF93DF938C01D62F7A01D5
:10155000B22E0E943E0D9C0133272B32310531F013
:101560002D32310561F48B2D8068B82ED15011F4E5
:1015700080E068C0C8010E943E0D97FDF9CFCB2DD9
:10158000CD7F2B2D207309F58033F9F4AA24AA947A
:10159000AD0E09F443C0C8010E943E0D97FD3EC048
:1015A0009C012F7D33272835310549F4C264D25080
:1015B000A9F1C8010E943E0D97FF07C02FC0B6FEDB
:1015C00002C0C26001C0C261DA2D812C912C54018D
:1015D00020ED280F283080F0C4FF04C0B8010E941D
:1015E0007C0D19C02A3040F0C6FFF8CF2F7D3FEEAA
:1015F000320F363098F727504C2FC501B4010E94A6
:101600005B0A4B015C01C260D15059F0C8010E94D5
:101610003E0D97FFDDCFC1FD04C0AACF812C912CD8
:101620005401C7FF08C0B094A09490948094811C8A
:10163000911CA11CB11C2C2FB501A401C7010E9453
:101640004F0A81E0DF91CF911F910F91FF90EF90B2
:10165000BF90AF909F908F9008955F926F927F920E
:101660008F929F92AF92BF92CF92DF92EF92FF92B2
:101670000F931F93CF93DF93CDB7DEB7A0970FB62D
:10168000F894DEBF0FBECDBF5C01962E7A01F90142
:101690008E010F5F1F4F680180E2D8011D928A956D
:1016A000E9F7D50113968C9080E090E0612C712CC5
:1016B00030E061E070E083FC259183FE21918F0191
:1016C000522E211103C080E090E092C02E3511F41B
:1016D000009751F1432F50E0481759073CF42D353E
:1016E00059F12D3219F4772009F103C0772009F45C
:1016F0006AC0452D469546954695D601A40FB11D65
:10170000452D47708B0102C0000F111F4A95E2F76B
:10171000A8015C91452B4C93651459F0561410F4B4
:101720005394E7CF5A94E5CF31E004C07724739403
:1017300001C0712C0196BFCF772019F08E81806295
:101740008E83311103C08824839417C0F6019E0153
:101750002F5D3F4F8081809581932E173F07D1F7F2
:10176000F2CFE114F10429F0D7018C93F7013196FF
:101770007F019A94812C9920F9F0C5010E943E0DB9
:1017800097FD18C0FC01FF2723E0F595E7952A9502
:10179000E1F7EC0DFD1D208130E0AC0147705527CD
:1017A00002C0359527954A95E2F720FDDACFB501BD
:1017B0000E947C0D811087CFE114F10411F0D70154
:1017C0001C92C80115C0422F469546954695D601F4
:1017D000A40FB11D422F47708B0102C0000F111FD3
:1017E0004A95E2F7A8015C91452B4C93622EA2CF5B
:1017F000A0960FB6F894DEBF0FBECDBFDF91CF919C
:101800001F910F91FF90EF90DF90CF90BF90AF901E
:101810009F908F907F906F905F9008955F926F92EE
:101820007F928F929F92AF92BF92CF92DF92EF9270
:10183000FF920F931F93CF93DF936C01EB015A013B
:10184000FC0117821682512CF601E380FE01E3FCB5
:101850008591E3FE8191182FEF01882309F4EEC0F2
:1018600090E00E94AD07892B21F0C6010E94820AF8
:10187000EBCF153241F4FE01E3FC1591E3FE11912B
:10188000EF01153281F4C6010E943E0D97FDD4C0D0
:10189000412F50E09C01332724173507A9F2B601E8
:1018A0000E947C0DCBC01A3239F4E3FC1591E3FEA3
:1018B0001191EF0101E001C000E0F12C20ED210FBA
:1018C0002A3080F402606F2D70E080E090E040E20A
:1018D0000E945B0AF62EFE01E3FC1591E3FE1191D6
:1018E000EF01ECCF01FF03C0F11003C0A7C0FF243C
:1018F000FA94183619F01C3651F010C0FE01E3FCC2
:101900001591E3FE1191EF01183641F4086004606F
:10191000FE01E3FC1591E3FE1191EF01112309F49F
:101920008DC0612F70E084E091E00E94330D892B1F
:1019300009F484C000FD07C0F50180809180C501D5
:1019400002965C0102C0812C912C1E3651F4F601E6
:101950004681578160E070E0202FC4010E944F0A49
:1019600073CF1336A9F401FD02C0FF24F394C6011E
:101970000E943E0D97FD60C08114910429F0F4018E
:101980008083C40101964C01FA94F110F0CF50C04D
:101990001B3559F49E01A4016F2DC6010E942D0B29
:1019A000EC01892B09F044C03EC0C6010E94820AA6
:1019B00097FD42C01F3661F128F4143639F119360B
:1019C00051F128C0133771F0153701F123C081148C
:1019D000910429F0F4016082C40101964C01FA944B
:1019E000FF2071F0C6010E943E0D3C0197FD08C02A
:1019F0000E94AD07892B59F3B601C3010E947C0DEB
:101A000081149104A9F0F401108212C0006203C095
:101A1000006101C00064202FA4016F2DC6010E9447
:101A20009B0A811105C0F6018381807329F406C0E9
:101A300000FD0ACF539408CF552019F0852D90E072
:101A400002C08FEF9FEFDF91CF911F910F91FF9019
:101A5000EF90DF90CF90BF90AF909F908F907F904E
:101A60006F905F900895FC010590061621F000200C
:101A7000D9F7C00108953197CF010895CF93DF932F
:101A8000EC012B8120FF33C026FF0AC02F7B2B8364
:101A90008E819F8101969F838E838A8190E029C0E9
:101AA00022FF0FC0E881F9818081082E000C990B7C
:101AB000009719F420622B831AC03196F983E883CA
:101AC0000EC0EA85FB85199597FF09C02B81019609
:101AD00011F080E201C080E1822B8B8308C02E814F
:101AE0003F812F5F3F4F3F832E83992702C08FEFA7
:101AF0009FEFDF91CF910895FB01238120FF12C05A
:101B000026FD10C08F3F3FEF930761F082832F7D4A
:101B1000206423832681378121503109378326832E
:0E1B2000992708958FEF9FEF0895F894FFCF57
:101B2E000000C7042000000000005301BC00EA00C2
:101B3E00A0011B01F9000D010D0A002425732025BB
:101B4E0073200A00636D643A00706172616D733ABE
:101B5E00007265626F6F7400736574646576696494
:101B6E00004E6577206465697669636549443A205D
:101B7E0000736574646576746F6B656E006D656D6C
:101B8E00636C65616E00737461727420636C656161
:101B9E006E696E6720746865206D656D6F72792E43
:101BAE00006D656D6F72792068617320636C65617D
:101BBE006E65642E00636865636B5F706172616D44
:101BCE0073002464656661756C746465766963651B
:101BDE006964240044454641554C545F444556497A
:101BEE0043455F494420686173206170706C69657C
:101BFE006421002464656661756C7464657669633E
:101C0E0065746F6B656E240044454641554C545FB8
:101C1E004445564943455F544F4B454E20686173CA
:101C2E00206170706C69656421004465627567207F
:101C3E006D6F6465206861732064697361626C65A1
:101C4E0064210044656D6F206D6F6465206861735B
:101C5E002064697361626C656421005458206D6F55
:101C6E0064652068617320656E61626C6564210035
:101C7E00676574636F6E66004465766963652049B7
:101C8E00443A200044657669636520546F6B656E37
:101C9E003A20004465627567206D6F64653A2000D6
:101CAE0044656D6F206D6F64653A20005458206D49
:101CBE006F64653A2000676574696E6465780043E9
:101CCE006F6D6D616E64206E6F7420666F756E64DD
:101CDE002100434D44204641494C45442100434D8B
:061CEE0044204F4B2100D1
:00000001FF
